{
  "_format": "hh-sol-artifact-1",
  "contractName": "LHS_Registrar",
  "sourceName": "contracts/LHS_Registrar.sol",
  "abi": [
    {
      "inputs": [],
      "stateMutability": "nonpayable",
      "type": "constructor"
    },
    {
      "anonymous": false,
      "inputs": [
        {
          "indexed": true,
          "internalType": "address",
          "name": "previousOwner",
          "type": "address"
        },
        {
          "indexed": true,
          "internalType": "address",
          "name": "newOwner",
          "type": "address"
        }
      ],
      "name": "OwnershipTransferred",
      "type": "event"
    },
    {
      "inputs": [],
      "name": "claim",
      "outputs": [],
      "stateMutability": "nonpayable",
      "type": "function"
    },
    {
      "inputs": [],
      "name": "claimAmount",
      "outputs": [
        {
          "internalType": "uint256",
          "name": "",
          "type": "uint256"
        }
      ],
      "stateMutability": "view",
      "type": "function"
    },
    {
      "inputs": [
        {
          "internalType": "address",
          "name": "",
          "type": "address"
        }
      ],
      "name": "hasClaimed",
      "outputs": [
        {
          "internalType": "bool",
          "name": "",
          "type": "bool"
        }
      ],
      "stateMutability": "view",
      "type": "function"
    },
    {
      "inputs": [
        {
          "internalType": "address",
          "name": "account",
          "type": "address"
        }
      ],
      "name": "isRegistered",
      "outputs": [
        {
          "internalType": "bool",
          "name": "",
          "type": "bool"
        }
      ],
      "stateMutability": "view",
      "type": "function"
    },
    {
      "inputs": [],
      "name": "owner",
      "outputs": [
        {
          "internalType": "address",
          "name": "",
          "type": "address"
        }
      ],
      "stateMutability": "view",
      "type": "function"
    },
    {
      "inputs": [
        {
          "internalType": "address",
          "name": "account",
          "type": "address"
        }
      ],
      "name": "registerAccount",
      "outputs": [],
      "stateMutability": "nonpayable",
      "type": "function"
    },
    {
      "inputs": [
        {
          "internalType": "address[]",
          "name": "accounts",
          "type": "address[]"
        }
      ],
      "name": "registerAccounts",
      "outputs": [],
      "stateMutability": "nonpayable",
      "type": "function"
    },
    {
      "inputs": [
        {
          "internalType": "address[]",
          "name": "collections",
          "type": "address[]"
        }
      ],
      "name": "registerCollections",
      "outputs": [],
      "stateMutability": "nonpayable",
      "type": "function"
    },
    {
      "inputs": [
        {
          "internalType": "address",
          "name": "",
          "type": "address"
        }
      ],
      "name": "registered",
      "outputs": [
        {
          "internalType": "bool",
          "name": "",
          "type": "bool"
        }
      ],
      "stateMutability": "view",
      "type": "function"
    },
    {
      "inputs": [
        {
          "internalType": "uint256",
          "name": "",
          "type": "uint256"
        }
      ],
      "name": "registered721",
      "outputs": [
        {
          "internalType": "address",
          "name": "",
          "type": "address"
        }
      ],
      "stateMutability": "view",
      "type": "function"
    },
    {
      "inputs": [],
      "name": "renounceOwnership",
      "outputs": [],
      "stateMutability": "nonpayable",
      "type": "function"
    },
    {
      "inputs": [
        {
          "internalType": "uint256",
          "name": "amount",
          "type": "uint256"
        }
      ],
      "name": "setClaimAmount",
      "outputs": [],
      "stateMutability": "nonpayable",
      "type": "function"
    },
    {
      "inputs": [],
      "name": "token",
      "outputs": [
        {
          "internalType": "contract IERC20Recyclable",
          "name": "",
          "type": "address"
        }
      ],
      "stateMutability": "view",
      "type": "function"
    },
    {
      "inputs": [
        {
          "internalType": "address",
          "name": "newOwner",
          "type": "address"
        }
      ],
      "name": "transferOwnership",
      "outputs": [],
      "stateMutability": "nonpayable",
      "type": "function"
    }
  ],
  "bytecode": "0x60a06040526005805460ff1916905534801561001a57600080fd5b50732d2c0a72eafdb8840da4f7b604e05dd64feb86c16816c4abbebea010000061004a610045610065565b610069565b60609190911b6001600160601b0319166080526003556100b9565b3390565b600080546001600160a01b038381166001600160a01b0319831681178455604051919092169283917f8be0079c531659141344cd1fd0a4f28419497f9722a3daafe3b4186f6b6457e09190a35050565b60805160601c610de66100de6000396000818161040001526108610152610de66000f3fe608060405234801561001057600080fd5b50600436106100ea5760003560e01c806397c414df1161008c578063c3c5a54711610066578063c3c5a547146101b3578063f208ccbc146101c6578063f2fde38b146101d9578063fc0c546a146101ec576100ea565b806397c414df1461017a578063b1c7ef0c1461018d578063b2dd5c07146101a0576100ea565b8063715018a6116100c8578063715018a61461013557806373b2e80e1461013d578063830953ab1461015d5780638da5cb5b14610172576100ea565b806326af1030146100ef57806333843362146101045780634e71d92d1461012d575b600080fd5b6101026100fd366004610989565b6101f4565b005b610117610112366004610a6a565b61031b565b6040516101249190610a9a565b60405180910390f35b610102610345565b6101026104e8565b61015061014b366004610968565b610533565b6040516101249190610ac7565b610165610548565b6040516101249190610d39565b61011761054e565b610102610188366004610968565b61055d565b61010261019b366004610a6a565b6105e9565b6101506101ae366004610968565b61064d565b6101506101c1366004610968565b610662565b6101026101d4366004610989565b610777565b6101026101e7366004610968565b6107ee565b61011761085f565b6101fc610883565b6001600160a01b031661020d61054e565b6001600160a01b03161461023c5760405162461bcd60e51b815260040161023390610c73565b60405180910390fd5b600081511161025d5760405162461bcd60e51b815260040161023390610b4f565b6000805b82518261ffff16101561031657828261ffff168151811061029257634e487b7160e01b600052603260045260246000fd5b6020026020010151905060006001600160a01b0316816001600160a01b0316141580156102d857506001600160a01b03811660009081526001602052604090205460ff16155b15610304576001600160a01b0381166000908152600160208190526040909120805460ff191690911790555b8161030e81610d42565b925050610261565b505050565b6002818154811061032b57600080fd5b6000918252602090912001546001600160a01b0316905081565b60055460ff161561035557600080fd5b6005805460ff191660011790553261036b610883565b6001600160a01b0316146103915760405162461bcd60e51b815260040161023390610b18565b61039c6101c1610883565b6103b85760405162461bcd60e51b815260040161023390610c28565b600460006103c4610883565b6001600160a01b0316815260208101919091526040016000205460ff16156103fe5760405162461bcd60e51b815260040161023390610b99565b7f00000000000000000000000000000000000000000000000000000000000000006001600160a01b03166340c10f19610435610883565b6003546040518363ffffffff1660e01b8152600401610455929190610aae565b602060405180830381600087803b15801561046f57600080fd5b505af1158015610483573d6000803e3d6000fd5b505050506040513d601f19601f820116820180604052508101906104a79190610a4a565b506001600460006104b6610883565b6001600160a01b031681526020810191909152604001600020805491151560ff19928316179055600580549091169055565b6104f0610883565b6001600160a01b031661050161054e565b6001600160a01b0316146105275760405162461bcd60e51b815260040161023390610c73565b6105316000610887565b565b60046020526000908152604090205460ff1681565b60035481565b6000546001600160a01b031690565b610565610883565b6001600160a01b031661057661054e565b6001600160a01b03161461059c5760405162461bcd60e51b815260040161023390610c73565b6001600160a01b0381166105c25760405162461bcd60e51b815260040161023390610ca8565b6001600160a01b03166000908152600160208190526040909120805460ff19169091179055565b6105f1610883565b6001600160a01b031661060261054e565b6001600160a01b0316146106285760405162461bcd60e51b815260040161023390610c73565b600081116106485760405162461bcd60e51b815260040161023390610be5565b600355565b60016020526000908152604090205460ff1681565b6001600160a01b03811660009081526001602052604081205460ff161561068b57506001610772565b60005b60025460ff8216101561076c57600060028260ff16815481106106c157634e487b7160e01b600052603260045260246000fd5b6000918252602090912001546040516370a0823160e01b81526001600160a01b03909116906370a08231906106fa908790600401610a9a565b60206040518083038186803b15801561071257600080fd5b505afa158015610726573d6000803e3d6000fd5b505050506040513d601f19601f8201168201806040525081019061074a9190610a82565b111561075a576001915050610772565b8061076481610d64565b91505061068e565b60009150505b919050565b61077f610883565b6001600160a01b031661079061054e565b6001600160a01b0316146107b65760405162461bcd60e51b815260040161023390610c73565b60008151116107d75760405162461bcd60e51b815260040161023390610cec565b80516107ea9060029060208401906108d7565b5050565b6107f6610883565b6001600160a01b031661080761054e565b6001600160a01b03161461082d5760405162461bcd60e51b815260040161023390610c73565b6001600160a01b0381166108535760405162461bcd60e51b815260040161023390610ad2565b61085c81610887565b50565b7f000000000000000000000000000000000000000000000000000000000000000081565b3390565b600080546001600160a01b038381166001600160a01b0319831681178455604051919092169283917f8be0079c531659141344cd1fd0a4f28419497f9722a3daafe3b4186f6b6457e09190a35050565b82805482825590600052602060002090810192821561092c579160200282015b8281111561092c57825182546001600160a01b0319166001600160a01b039091161782556020909201916001909101906108f7565b5061093892915061093c565b5090565b5b80821115610938576000815560010161093d565b80356001600160a01b038116811461077257600080fd5b600060208284031215610979578081fd5b61098282610951565b9392505050565b6000602080838503121561099b578182fd5b823567ffffffffffffffff808211156109b2578384fd5b818501915085601f8301126109c5578384fd5b8135818111156109d7576109d7610d9a565b838102604051858282010181811085821117156109f6576109f6610d9a565b604052828152858101935084860182860187018a1015610a14578788fd5b8795505b83861015610a3d57610a2981610951565b855260019590950194938601938601610a18565b5098975050505050505050565b600060208284031215610a5b578081fd5b81518015158114610982578182fd5b600060208284031215610a7b578081fd5b5035919050565b600060208284031215610a93578081fd5b5051919050565b6001600160a01b0391909116815260200190565b6001600160a01b03929092168252602082015260400190565b901515815260200190565b60208082526026908201527f4f776e61626c653a206e6577206f776e657220697320746865207a65726f206160408201526564647265737360d01b606082015260800190565b6020808252601d908201527f436f6d6d756e6974795265676973747261723a20454f41206f6e6c792e000000604082015260600190565b6020808252602a908201527f436f6d6d756e6974795265676973747261723a20496e76616c6964206163636f6040820152693ab73a39903634b9ba1760b11b606082015260800190565b6020808252602c908201527f436f6d6d756e6974795265676973747261723a204163636f756e7420616c726560408201526b30b23c9031b630b4b6b2b21760a11b606082015260800190565b60208082526023908201527f436f6d6d756e6974795265676973747261723a20496e76616c696420616d6f75604082015262373a1760e91b606082015260800190565b6020808252602b908201527f436f6d6d756e6974795265676973747261723a204163636f756e74206e6f742060408201526a3932b3b4b9ba32b932b21760a91b606082015260800190565b6020808252818101527f4f776e61626c653a2063616c6c6572206973206e6f7420746865206f776e6572604082015260600190565b60208082526024908201527f436f6d6d756e6974795265676973747261723a20496e76616c6964206163636f6040820152633ab73a1760e11b606082015260800190565b6020808252602d908201527f436f6d6d756e6974795265676973747261723a20496e76616c696420636f6c6c60408201526c32b1ba34b7b739903634b9ba1760991b606082015260800190565b90815260200190565b600061ffff80831681811415610d5a57610d5a610d84565b6001019392505050565b600060ff821660ff811415610d7b57610d7b610d84565b60010192915050565b634e487b7160e01b600052601160045260246000fd5b634e487b7160e01b600052604160045260246000fdfea26469706673582212201382ad6c8b47f1a463644fabb39d04bf149132bb53cf2ef690653f39831244d564736f6c63430008000033",
  "linkReferences": {},
  "deployedLinkReferences": {}
}