{
  "_format": "hh-sol-artifact-1",
  "contractName": "LostHopeCaptains",
  "sourceName": "contracts/LostHopeCaptains.sol",
  "abi": [
    {
      "inputs": [],
      "stateMutability": "nonpayable",
      "type": "constructor"
    },
    {
      "anonymous": false,
      "inputs": [
        {
          "indexed": true,
          "internalType": "address",
          "name": "owner",
          "type": "address"
        },
        {
          "indexed": true,
          "internalType": "address",
          "name": "approved",
          "type": "address"
        },
        {
          "indexed": true,
          "internalType": "uint256",
          "name": "tokenId",
          "type": "uint256"
        }
      ],
      "name": "Approval",
      "type": "event"
    },
    {
      "anonymous": false,
      "inputs": [
        {
          "indexed": true,
          "internalType": "address",
          "name": "owner",
          "type": "address"
        },
        {
          "indexed": true,
          "internalType": "address",
          "name": "operator",
          "type": "address"
        },
        {
          "indexed": false,
          "internalType": "bool",
          "name": "approved",
          "type": "bool"
        }
      ],
      "name": "ApprovalForAll",
      "type": "event"
    },
    {
      "anonymous": false,
      "inputs": [
        {
          "indexed": true,
          "internalType": "address",
          "name": "owner",
          "type": "address"
        },
        {
          "indexed": true,
          "internalType": "uint256",
          "name": "tokenId",
          "type": "uint256"
        },
        {
          "indexed": false,
          "internalType": "uint256",
          "name": "amount",
          "type": "uint256"
        }
      ],
      "name": "Harvested",
      "type": "event"
    },
    {
      "anonymous": false,
      "inputs": [
        {
          "indexed": true,
          "internalType": "address",
          "name": "previousOwner",
          "type": "address"
        },
        {
          "indexed": true,
          "internalType": "address",
          "name": "newOwner",
          "type": "address"
        }
      ],
      "name": "OwnershipTransferred",
      "type": "event"
    },
    {
      "anonymous": false,
      "inputs": [
        {
          "indexed": true,
          "internalType": "address",
          "name": "from",
          "type": "address"
        },
        {
          "indexed": true,
          "internalType": "address",
          "name": "to",
          "type": "address"
        },
        {
          "indexed": true,
          "internalType": "uint256",
          "name": "tokenId",
          "type": "uint256"
        }
      ],
      "name": "Transfer",
      "type": "event"
    },
    {
      "inputs": [],
      "name": "BLOCKS_PER_DAY",
      "outputs": [
        {
          "internalType": "uint256",
          "name": "",
          "type": "uint256"
        }
      ],
      "stateMutability": "view",
      "type": "function"
    },
    {
      "inputs": [],
      "name": "FACTION_COUNT",
      "outputs": [
        {
          "internalType": "uint8",
          "name": "",
          "type": "uint8"
        }
      ],
      "stateMutability": "view",
      "type": "function"
    },
    {
      "inputs": [],
      "name": "PRECISION",
      "outputs": [
        {
          "internalType": "uint256",
          "name": "",
          "type": "uint256"
        }
      ],
      "stateMutability": "view",
      "type": "function"
    },
    {
      "inputs": [
        {
          "internalType": "address",
          "name": "to",
          "type": "address"
        },
        {
          "internalType": "uint256",
          "name": "tokenId",
          "type": "uint256"
        }
      ],
      "name": "approve",
      "outputs": [],
      "stateMutability": "nonpayable",
      "type": "function"
    },
    {
      "inputs": [
        {
          "internalType": "address",
          "name": "owner",
          "type": "address"
        }
      ],
      "name": "balanceOf",
      "outputs": [
        {
          "internalType": "uint256",
          "name": "",
          "type": "uint256"
        }
      ],
      "stateMutability": "view",
      "type": "function"
    },
    {
      "inputs": [
        {
          "internalType": "uint256",
          "name": "",
          "type": "uint256"
        }
      ],
      "name": "captainIndex",
      "outputs": [
        {
          "internalType": "uint16",
          "name": "",
          "type": "uint16"
        }
      ],
      "stateMutability": "view",
      "type": "function"
    },
    {
      "inputs": [
        {
          "internalType": "uint256",
          "name": "tokenId",
          "type": "uint256"
        }
      ],
      "name": "claimOf",
      "outputs": [
        {
          "internalType": "uint256",
          "name": "",
          "type": "uint256"
        }
      ],
      "stateMutability": "view",
      "type": "function"
    },
    {
      "inputs": [
        {
          "internalType": "uint256",
          "name": "tokenId",
          "type": "uint256"
        }
      ],
      "name": "claimOfView",
      "outputs": [
        {
          "internalType": "string",
          "name": "stringView",
          "type": "string"
        }
      ],
      "stateMutability": "view",
      "type": "function"
    },
    {
      "inputs": [],
      "name": "emissionDaily",
      "outputs": [
        {
          "internalType": "uint256",
          "name": "",
          "type": "uint256"
        }
      ],
      "stateMutability": "pure",
      "type": "function"
    },
    {
      "inputs": [],
      "name": "extTokenURI",
      "outputs": [
        {
          "internalType": "contract IURIExt",
          "name": "",
          "type": "address"
        }
      ],
      "stateMutability": "view",
      "type": "function"
    },
    {
      "inputs": [
        {
          "internalType": "uint8",
          "name": "",
          "type": "uint8"
        }
      ],
      "name": "factionImage",
      "outputs": [
        {
          "internalType": "string",
          "name": "",
          "type": "string"
        }
      ],
      "stateMutability": "view",
      "type": "function"
    },
    {
      "inputs": [
        {
          "internalType": "uint8",
          "name": "",
          "type": "uint8"
        }
      ],
      "name": "factionIndex",
      "outputs": [
        {
          "internalType": "uint16",
          "name": "",
          "type": "uint16"
        }
      ],
      "stateMutability": "view",
      "type": "function"
    },
    {
      "inputs": [],
      "name": "factionLimit",
      "outputs": [
        {
          "internalType": "uint16",
          "name": "",
          "type": "uint16"
        }
      ],
      "stateMutability": "view",
      "type": "function"
    },
    {
      "inputs": [
        {
          "internalType": "uint8",
          "name": "",
          "type": "uint8"
        }
      ],
      "name": "factionName",
      "outputs": [
        {
          "internalType": "string",
          "name": "",
          "type": "string"
        }
      ],
      "stateMutability": "view",
      "type": "function"
    },
    {
      "inputs": [
        {
          "internalType": "uint256",
          "name": "",
          "type": "uint256"
        }
      ],
      "name": "factionOf",
      "outputs": [
        {
          "internalType": "uint8",
          "name": "",
          "type": "uint8"
        }
      ],
      "stateMutability": "view",
      "type": "function"
    },
    {
      "inputs": [
        {
          "internalType": "uint256",
          "name": "tokenId",
          "type": "uint256"
        }
      ],
      "name": "getApproved",
      "outputs": [
        {
          "internalType": "address",
          "name": "",
          "type": "address"
        }
      ],
      "stateMutability": "view",
      "type": "function"
    },
    {
      "inputs": [
        {
          "internalType": "uint256",
          "name": "tokenId",
          "type": "uint256"
        }
      ],
      "name": "harvest",
      "outputs": [],
      "stateMutability": "nonpayable",
      "type": "function"
    },
    {
      "inputs": [
        {
          "internalType": "uint256",
          "name": "tokenId",
          "type": "uint256"
        }
      ],
      "name": "harvestAmount",
      "outputs": [
        {
          "internalType": "uint256",
          "name": "amount",
          "type": "uint256"
        }
      ],
      "stateMutability": "view",
      "type": "function"
    },
    {
      "inputs": [
        {
          "internalType": "uint256",
          "name": "tokenId",
          "type": "uint256"
        }
      ],
      "name": "harvestBlockOf",
      "outputs": [
        {
          "internalType": "uint256",
          "name": "",
          "type": "uint256"
        }
      ],
      "stateMutability": "view",
      "type": "function"
    },
    {
      "inputs": [],
      "name": "harvestClaim",
      "outputs": [
        {
          "internalType": "uint256",
          "name": "",
          "type": "uint256"
        }
      ],
      "stateMutability": "view",
      "type": "function"
    },
    {
      "inputs": [
        {
          "internalType": "uint256",
          "name": "tokenId",
          "type": "uint256"
        }
      ],
      "name": "harvestDaysOf",
      "outputs": [
        {
          "internalType": "uint256",
          "name": "amount",
          "type": "uint256"
        }
      ],
      "stateMutability": "view",
      "type": "function"
    },
    {
      "inputs": [],
      "name": "harvestEmission",
      "outputs": [
        {
          "internalType": "uint256",
          "name": "",
          "type": "uint256"
        }
      ],
      "stateMutability": "view",
      "type": "function"
    },
    {
      "inputs": [],
      "name": "harvestStart",
      "outputs": [
        {
          "internalType": "uint256",
          "name": "",
          "type": "uint256"
        }
      ],
      "stateMutability": "view",
      "type": "function"
    },
    {
      "inputs": [],
      "name": "harvestToken",
      "outputs": [
        {
          "internalType": "contract IERC20Recyclable",
          "name": "",
          "type": "address"
        }
      ],
      "stateMutability": "view",
      "type": "function"
    },
    {
      "inputs": [
        {
          "internalType": "uint256",
          "name": "",
          "type": "uint256"
        }
      ],
      "name": "harvesting",
      "outputs": [
        {
          "internalType": "uint256",
          "name": "claim",
          "type": "uint256"
        },
        {
          "internalType": "uint256",
          "name": "block",
          "type": "uint256"
        }
      ],
      "stateMutability": "view",
      "type": "function"
    },
    {
      "inputs": [],
      "name": "index",
      "outputs": [
        {
          "internalType": "uint256",
          "name": "",
          "type": "uint256"
        }
      ],
      "stateMutability": "view",
      "type": "function"
    },
    {
      "inputs": [
        {
          "internalType": "address",
          "name": "owner",
          "type": "address"
        },
        {
          "internalType": "address",
          "name": "operator",
          "type": "address"
        }
      ],
      "name": "isApprovedForAll",
      "outputs": [
        {
          "internalType": "bool",
          "name": "",
          "type": "bool"
        }
      ],
      "stateMutability": "view",
      "type": "function"
    },
    {
      "inputs": [
        {
          "internalType": "address",
          "name": "",
          "type": "address"
        }
      ],
      "name": "limitIndex",
      "outputs": [
        {
          "internalType": "uint16",
          "name": "",
          "type": "uint16"
        }
      ],
      "stateMutability": "view",
      "type": "function"
    },
    {
      "inputs": [],
      "name": "maxSupply",
      "outputs": [
        {
          "internalType": "uint256",
          "name": "",
          "type": "uint256"
        }
      ],
      "stateMutability": "pure",
      "type": "function"
    },
    {
      "inputs": [
        {
          "internalType": "uint8",
          "name": "factionId",
          "type": "uint8"
        }
      ],
      "name": "mint",
      "outputs": [],
      "stateMutability": "payable",
      "type": "function"
    },
    {
      "inputs": [],
      "name": "mintFee",
      "outputs": [
        {
          "internalType": "uint256",
          "name": "",
          "type": "uint256"
        }
      ],
      "stateMutability": "view",
      "type": "function"
    },
    {
      "inputs": [],
      "name": "mintLimit",
      "outputs": [
        {
          "internalType": "uint16",
          "name": "",
          "type": "uint16"
        }
      ],
      "stateMutability": "view",
      "type": "function"
    },
    {
      "inputs": [],
      "name": "mintStage",
      "outputs": [
        {
          "internalType": "enum LostHopeCaptains.stage",
          "name": "",
          "type": "uint8"
        }
      ],
      "stateMutability": "view",
      "type": "function"
    },
    {
      "inputs": [],
      "name": "name",
      "outputs": [
        {
          "internalType": "string",
          "name": "",
          "type": "string"
        }
      ],
      "stateMutability": "view",
      "type": "function"
    },
    {
      "inputs": [],
      "name": "owner",
      "outputs": [
        {
          "internalType": "address",
          "name": "",
          "type": "address"
        }
      ],
      "stateMutability": "view",
      "type": "function"
    },
    {
      "inputs": [
        {
          "internalType": "uint256",
          "name": "tokenId",
          "type": "uint256"
        }
      ],
      "name": "ownerOf",
      "outputs": [
        {
          "internalType": "address",
          "name": "",
          "type": "address"
        }
      ],
      "stateMutability": "view",
      "type": "function"
    },
    {
      "inputs": [],
      "name": "renounceOwnership",
      "outputs": [],
      "stateMutability": "nonpayable",
      "type": "function"
    },
    {
      "inputs": [
        {
          "internalType": "address",
          "name": "from",
          "type": "address"
        },
        {
          "internalType": "address",
          "name": "to",
          "type": "address"
        },
        {
          "internalType": "uint256",
          "name": "tokenId",
          "type": "uint256"
        }
      ],
      "name": "safeTransferFrom",
      "outputs": [],
      "stateMutability": "nonpayable",
      "type": "function"
    },
    {
      "inputs": [
        {
          "internalType": "address",
          "name": "from",
          "type": "address"
        },
        {
          "internalType": "address",
          "name": "to",
          "type": "address"
        },
        {
          "internalType": "uint256",
          "name": "tokenId",
          "type": "uint256"
        },
        {
          "internalType": "bytes",
          "name": "_data",
          "type": "bytes"
        }
      ],
      "name": "safeTransferFrom",
      "outputs": [],
      "stateMutability": "nonpayable",
      "type": "function"
    },
    {
      "inputs": [
        {
          "internalType": "address",
          "name": "operator",
          "type": "address"
        },
        {
          "internalType": "bool",
          "name": "approved",
          "type": "bool"
        }
      ],
      "name": "setApprovalForAll",
      "outputs": [],
      "stateMutability": "nonpayable",
      "type": "function"
    },
    {
      "inputs": [
        {
          "internalType": "address",
          "name": "_contract",
          "type": "address"
        }
      ],
      "name": "setExtTokenURI",
      "outputs": [],
      "stateMutability": "nonpayable",
      "type": "function"
    },
    {
      "inputs": [
        {
          "internalType": "string[]",
          "name": "_images",
          "type": "string[]"
        }
      ],
      "name": "setFactionImages",
      "outputs": [],
      "stateMutability": "nonpayable",
      "type": "function"
    },
    {
      "inputs": [
        {
          "internalType": "string[]",
          "name": "_names",
          "type": "string[]"
        }
      ],
      "name": "setFactionNames",
      "outputs": [],
      "stateMutability": "nonpayable",
      "type": "function"
    },
    {
      "inputs": [
        {
          "internalType": "uint256",
          "name": "_block",
          "type": "uint256"
        }
      ],
      "name": "setHarvestStart",
      "outputs": [],
      "stateMutability": "nonpayable",
      "type": "function"
    },
    {
      "inputs": [
        {
          "internalType": "address",
          "name": "_token",
          "type": "address"
        }
      ],
      "name": "setHarvestToken",
      "outputs": [],
      "stateMutability": "nonpayable",
      "type": "function"
    },
    {
      "inputs": [
        {
          "internalType": "uint256",
          "name": "_mintFee",
          "type": "uint256"
        }
      ],
      "name": "setMintFee",
      "outputs": [],
      "stateMutability": "nonpayable",
      "type": "function"
    },
    {
      "inputs": [
        {
          "internalType": "uint16",
          "name": "_mintLimit",
          "type": "uint16"
        }
      ],
      "name": "setMintLimit",
      "outputs": [],
      "stateMutability": "nonpayable",
      "type": "function"
    },
    {
      "inputs": [
        {
          "internalType": "enum LostHopeCaptains.stage",
          "name": "_mintStage",
          "type": "uint8"
        }
      ],
      "name": "setMintStage",
      "outputs": [],
      "stateMutability": "nonpayable",
      "type": "function"
    },
    {
      "inputs": [
        {
          "internalType": "bool",
          "name": "_soulStakingOn",
          "type": "bool"
        }
      ],
      "name": "setSoulStaking",
      "outputs": [],
      "stateMutability": "nonpayable",
      "type": "function"
    },
    {
      "inputs": [
        {
          "internalType": "address",
          "name": "_treasury",
          "type": "address"
        }
      ],
      "name": "setTreasury",
      "outputs": [],
      "stateMutability": "nonpayable",
      "type": "function"
    },
    {
      "inputs": [
        {
          "internalType": "uint256",
          "name": "",
          "type": "uint256"
        }
      ],
      "name": "soulStaked",
      "outputs": [
        {
          "internalType": "uint256",
          "name": "",
          "type": "uint256"
        }
      ],
      "stateMutability": "view",
      "type": "function"
    },
    {
      "inputs": [],
      "name": "soulStakingOn",
      "outputs": [
        {
          "internalType": "bool",
          "name": "",
          "type": "bool"
        }
      ],
      "stateMutability": "view",
      "type": "function"
    },
    {
      "inputs": [
        {
          "internalType": "uint256",
          "name": "tokenId",
          "type": "uint256"
        }
      ],
      "name": "stake",
      "outputs": [],
      "stateMutability": "nonpayable",
      "type": "function"
    },
    {
      "inputs": [
        {
          "internalType": "uint256",
          "name": "tokenId",
          "type": "uint256"
        }
      ],
      "name": "stakedFor",
      "outputs": [
        {
          "internalType": "uint256",
          "name": "blocks",
          "type": "uint256"
        }
      ],
      "stateMutability": "view",
      "type": "function"
    },
    {
      "inputs": [
        {
          "internalType": "uint256",
          "name": "tokenId",
          "type": "uint256"
        }
      ],
      "name": "stakedForDays",
      "outputs": [
        {
          "internalType": "uint256",
          "name": "amount",
          "type": "uint256"
        }
      ],
      "stateMutability": "view",
      "type": "function"
    },
    {
      "inputs": [
        {
          "internalType": "bytes4",
          "name": "interfaceId",
          "type": "bytes4"
        }
      ],
      "name": "supportsInterface",
      "outputs": [
        {
          "internalType": "bool",
          "name": "",
          "type": "bool"
        }
      ],
      "stateMutability": "view",
      "type": "function"
    },
    {
      "inputs": [],
      "name": "symbol",
      "outputs": [
        {
          "internalType": "string",
          "name": "",
          "type": "string"
        }
      ],
      "stateMutability": "view",
      "type": "function"
    },
    {
      "inputs": [
        {
          "internalType": "uint256",
          "name": "tokenId",
          "type": "uint256"
        }
      ],
      "name": "tokenURI",
      "outputs": [
        {
          "internalType": "string",
          "name": "uri",
          "type": "string"
        }
      ],
      "stateMutability": "view",
      "type": "function"
    },
    {
      "inputs": [],
      "name": "totalSupply",
      "outputs": [
        {
          "internalType": "uint256",
          "name": "amount",
          "type": "uint256"
        }
      ],
      "stateMutability": "view",
      "type": "function"
    },
    {
      "inputs": [
        {
          "internalType": "address",
          "name": "from",
          "type": "address"
        },
        {
          "internalType": "address",
          "name": "to",
          "type": "address"
        },
        {
          "internalType": "uint256",
          "name": "tokenId",
          "type": "uint256"
        }
      ],
      "name": "transferFrom",
      "outputs": [],
      "stateMutability": "nonpayable",
      "type": "function"
    },
    {
      "inputs": [
        {
          "internalType": "address",
          "name": "newOwner",
          "type": "address"
        }
      ],
      "name": "transferOwnership",
      "outputs": [],
      "stateMutability": "nonpayable",
      "type": "function"
    },
    {
      "inputs": [],
      "name": "treasury",
      "outputs": [
        {
          "internalType": "address",
          "name": "",
          "type": "address"
        }
      ],
      "stateMutability": "view",
      "type": "function"
    },
    {
      "inputs": [
        {
          "internalType": "uint256",
          "name": "tokenId",
          "type": "uint256"
        }
      ],
      "name": "unstake",
      "outputs": [],
      "stateMutability": "nonpayable",
      "type": "function"
    },
    {
      "inputs": [],
      "name": "withdraw",
      "outputs": [],
      "stateMutability": "nonpayable",
      "type": "function"
    }
  ],
  "bytecode": "0x60806040526006805460ff60a01b199081169091556008805461ffff191660011790556608e1bc9bf04000600a556014805460ff191690556016805490911690553480156200004d57600080fd5b5060408051808201825260128152714c6f737420486f7065204361707461696e7360701b602080830191825283519081019093526000808452825192939262000097929062000126565b508051620000ad90600190602084019062000126565b505050620000ca620000c4620000d060201b60201c565b620000d4565b62000209565b3390565b600680546001600160a01b038381166001600160a01b0319831681179093556040519116919082907f8be0079c531659141344cd1fd0a4f28419497f9722a3daafe3b4186f6b6457e090600090a35050565b8280546200013490620001cc565b90600052602060002090601f016020900481019282620001585760008555620001a3565b82601f106200017357805160ff1916838001178555620001a3565b82800160010185558215620001a3579182015b82811115620001a357825182559160200191906001019062000186565b50620001b1929150620001b5565b5090565b5b80821115620001b15760008155600101620001b6565b600281046001821680620001e157607f821691505b602082108114156200020357634e487b7160e01b600052602260045260246000fd5b50919050565b6141ff80620002196000396000f3fe6080604052600436106103c35760003560e01c8063886daef5116101f2578063d4a58cd71161010d578063ea36cbb1116100a0578063f150a0491161006f578063f150a04914610abb578063f2fde38b14610add578063f51fc34a14610afd578063f6225f2c14610b1d576103c3565b8063ea36cbb114610a51578063eddd0d9c14610a66578063f053835a14610a86578063f0f4426014610a9b576103c3565b8063ddc63262116100dc578063ddc63262146109dc578063df68c3fc146109fc578063e748bce314610a1c578063e985e9c514610a31576103c3565b8063d4a58cd714610967578063d5abeb0114610987578063d5fe01141461099c578063d7fb9782146109bc576103c3565b8063a694fc3a11610185578063b88d4fde11610154578063b88d4fde146108e7578063bb0ba35d14610907578063c874c41c14610927578063c87b56dd14610947576103c3565b8063a694fc3a14610872578063aaf5eb6814610892578063ad149cde146108a7578063b37a8b9a146108c7576103c3565b80639e4bb56f116101c15780639e4bb56f14610808578063a22cb4651461081d578063a31ef0191461083d578063a4673f791461085d576103c3565b8063886daef5146107b45780638da5cb5b146107c957806395d89b41146107de578063996517cf146107f3576103c3565b8063540d11be116102e25780636ecd23061161027557806378bbcaa31161024457806378bbcaa31461073f578063826b9dd01461075f5780638663eac01461077f57806386ce24b11461079f576103c3565b80636ecd2306146106d757806370a08231146106ea578063715018a61461070a578063774912af1461071f576103c3565b80636352211e116102b15780636352211e1461066257806365bea4a51461068257806369fbddc8146106a25780636bb987fe146106c2576103c3565b8063540d11be146105eb5780635bea034a146106185780635c76945f1461062d57806361d027b31461064d576103c3565b806324bdc3ef1161035a5780633af02175116103295780633af02175146105695780633ccfd60b146105895780633ff7e0b61461059e57806342842e0e146105cb576103c3565b806324bdc3ef146104e65780632986c0e5146105065780632e17de781461051b578063314e3f221461053b576103c3565b806311c8dc5a1161039657806311c8dc5a1461046f57806313966db51461049c57806318160ddd146104b157806323b872dd146104c6576103c3565b806301ffc9a7146103c857806306fdde03146103fe578063081812fc14610420578063095ea7b31461044d575b600080fd5b3480156103d457600080fd5b506103e86103e3366004612ee3565b610b32565b6040516103f591906135b3565b60405180910390f35b34801561040a57600080fd5b50610413610b7a565b6040516103f591906135e6565b34801561042c57600080fd5b5061044061043b366004612fcf565b610c0c565b6040516103f59190613549565b34801561045957600080fd5b5061046d610468366004612dce565b610c58565b005b34801561047b57600080fd5b5061048f61048a366004612fcf565b610cf0565b6040516103f59190613f13565b3480156104a857600080fd5b5061048f610d02565b3480156104bd57600080fd5b5061048f610d08565b3480156104d257600080fd5b5061046d6104e1366004612ce4565b610d61565b3480156104f257600080fd5b5061046d610501366004612c98565b610d99565b34801561051257600080fd5b5061048f610dfa565b34801561052757600080fd5b5061046d610536366004612fcf565b610e00565b34801561054757600080fd5b5061055b610556366004612fcf565b610eb5565b6040516103f5929190613f1c565b34801561057557600080fd5b5061046d610584366004612fcf565b610ece565b34801561059557600080fd5b5061046d610f33565b3480156105aa57600080fd5b506105be6105b9366004612c98565b610fa5565b6040516103f59190613f04565b3480156105d757600080fd5b5061046d6105e6366004612ce4565b610fbb565b3480156105f757600080fd5b5061060b610606366004612fcf565b610fd6565b6040516103f59190613f2a565b34801561062457600080fd5b506103e8610feb565b34801561063957600080fd5b5061046d610648366004612df7565b610ff4565b34801561065957600080fd5b506104406110dd565b34801561066e57600080fd5b5061044061067d366004612fcf565b6110ec565b34801561068e57600080fd5b5061041361069d366004612fe7565b611121565b3480156106ae57600080fd5b506105be6106bd366004612fcf565b6111bb565b3480156106ce57600080fd5b5061048f6111d1565b61046d6106e5366004612fe7565b6111d7565b3480156106f657600080fd5b5061048f610705366004612c98565b611502565b34801561071657600080fd5b5061046d611546565b34801561072b57600080fd5b5061048f61073a366004612fcf565b61158f565b34801561074b57600080fd5b5061048f61075a366004612fcf565b6115bc565b34801561076b57600080fd5b5061046d61077a366004612eab565b61162f565b34801561078b57600080fd5b5061046d61079a366004612c98565b611681565b3480156107ab57600080fd5b5061048f6116e2565b3480156107c057600080fd5b50610440611710565b3480156107d557600080fd5b5061044061171f565b3480156107ea57600080fd5b5061041361172e565b3480156107ff57600080fd5b506105be61173d565b34801561081457600080fd5b506105be611747565b34801561082957600080fd5b5061046d610838366004612d98565b61174c565b34801561084957600080fd5b506105be610858366004612fe7565b61181a565b34801561086957600080fd5b5061048f611830565b34801561087e57600080fd5b5061046d61088d366004612fcf565b61183c565b34801561089e57600080fd5b5061048f611916565b3480156108b357600080fd5b506104136108c2366004612fcf565b611922565b3480156108d357600080fd5b5061046d6108e2366004612df7565b61197e565b3480156108f357600080fd5b5061046d610902366004612d1f565b611a63565b34801561091357600080fd5b5061046d610922366004612f1b565b611aa2565b34801561093357600080fd5b50610413610942366004612fe7565b611b1c565b34801561095357600080fd5b50610413610962366004612fcf565b611b35565b34801561097357600080fd5b5061048f610982366004612fcf565b611e20565b34801561099357600080fd5b5061048f611e71565b3480156109a857600080fd5b5061046d6109b7366004612fad565b611e88565b3480156109c857600080fd5b5061048f6109d7366004612fcf565b611edf565b3480156109e857600080fd5b5061046d6109f7366004612fcf565b611f1f565b348015610a0857600080fd5b5061048f610a17366004612fcf565b612134565b348015610a2857600080fd5b5061048f612149565b348015610a3d57600080fd5b506103e8610a4c366004612cb2565b61214f565b348015610a5d57600080fd5b5061060b61217d565b348015610a7257600080fd5b5061046d610a81366004612fcf565b612182565b348015610a9257600080fd5b5061048f6121c6565b348015610aa757600080fd5b5061046d610ab6366004612c98565b6121d4565b348015610ac757600080fd5b50610ad0612235565b6040516103f591906135be565b348015610ae957600080fd5b5061046d610af8366004612c98565b612245565b348015610b0957600080fd5b5061048f610b18366004612fcf565b6122b6565b348015610b2957600080fd5b506104406122c8565b60006001600160e01b031982166380ac58cd60e01b1480610b6357506001600160e01b03198216635b5e139f60e01b145b80610b725750610b72826122d7565b90505b919050565b606060008054610b8990614099565b80601f0160208091040260200160405190810160405280929190818152602001828054610bb590614099565b8015610c025780601f10610bd757610100808354040283529160200191610c02565b820191906000526020600020905b815481529060010190602001808311610be557829003601f168201915b5050505050905090565b6000610c17826122f0565b610c3c5760405162461bcd60e51b8152600401610c3390613b22565b60405180910390fd5b506000908152600460205260409020546001600160a01b031690565b6000610c63826110ec565b9050806001600160a01b0316836001600160a01b03161415610c975760405162461bcd60e51b8152600401610c3390613c64565b806001600160a01b0316610ca961230d565b6001600160a01b03161480610cc55750610cc581610a4c61230d565b610ce15760405162461bcd60e51b8152600401610c3390613975565b610ceb8383612311565b505050565b6000908152600e602052604090205490565b600a5481565b6000805b600a60ff82161015610d5d5760106000610d27836001613fd4565b60ff168152602081019190915260400160002054610d499061ffff1683613fbc565b915080610d55816140ef565b915050610d0c565b5090565b610d72610d6c61230d565b8261237f565b610d8e5760405162461bcd60e51b8152600401610c3390613d61565b610ceb838383612404565b610da161230d565b6001600160a01b0316610db261171f565b6001600160a01b031614610dd85760405162461bcd60e51b8152600401610c3390613b6e565b601680546001600160a01b0319166001600160a01b0392909216919091179055565b60075481565b601654600160a01b900460ff1615610e1757600080fd5b6016805460ff60a01b1916600160a01b17905580610e3361230d565b6001600160a01b0316610e45826110ec565b6001600160a01b031614610e6b5760405162461bcd60e51b8152600401610c3390613a65565b600082815260156020526040902054610e965760405162461bcd60e51b8152600401610c33906135f9565b506000908152601560205260408120556016805460ff60a01b19169055565b600e602052600090815260409020805460019091015482565b610ed661230d565b6001600160a01b0316610ee761171f565b6001600160a01b031614610f0d5760405162461bcd60e51b8152600401610c3390613b6e565b43600d5410610f2e5760405162461bcd60e51b8152600401610c3390613aa7565b600d55565b610f3b61230d565b6001600160a01b0316610f4c61171f565b6001600160a01b031614610f725760405162461bcd60e51b8152600401610c3390613b6e565b60004711610f925760405162461bcd60e51b8152600401610c33906137a4565b610fa3610f9d61171f565b47612531565b565b60096020526000908152604090205461ffff1681565b610ceb83838360405180602001604052806000815250611a63565b600f6020526000908152604090205460ff1681565b60145460ff1681565b610ffc61230d565b6001600160a01b031661100d61171f565b6001600160a01b0316146110335760405162461bcd60e51b8152600401610c3390613b6e565b8051600a146110545760405162461bcd60e51b8152600401610c3390613ec1565b60005b600a60ff821610156110d957818160ff168151811061108657634e487b7160e01b600052603260045260246000fd5b60200260200101516013600083600161109f9190613fd4565b60ff1660ff16815260200190815260200160002090805190602001906110c6929190612bb3565b50806110d1816140ef565b915050611057565b5050565b600b546001600160a01b031681565b6000818152600260205260408120546001600160a01b031680610b725760405162461bcd60e51b8152600401610c3390613a1c565b6012602052600090815260409020805461113a90614099565b80601f016020809104026020016040519081016040528092919081815260200182805461116690614099565b80156111b35780601f10611188576101008083540402835291602001916111b3565b820191906000526020600020905b81548152906001019060200180831161119657829003601f168201915b505050505081565b60116020526000908152604090205461ffff1681565b619c4081565b601654600160a01b900460ff16156111ee57600080fd5b6016805460ff60a01b1916600160a01b1790553261120a61230d565b6001600160a01b0316146112305760405162461bcd60e51b8152600401610c3390613ce6565b6000600654600160a01b900460ff16600181111561125e57634e487b7160e01b600052602160045260246000fd5b141561127c5760405162461bcd60e51b8152600401610c3390613940565b600a5434101561129e5760405162461bcd60e51b8152600401610c3390613db2565b60008160ff161180156112b55750600a60ff821611155b6112d15760405162461bcd60e51b8152600401610c3390613c2d565b60ff8116600090815260106020526040902054606461ffff909116106113095760405162461bcd60e51b8152600401610c3390613d1d565b60085461ffff166009600061131c61230d565b6001600160a01b0316815260208101919091526040016000205461ffff16106113575760405162461bcd60e51b8152600401610c3390613ca5565b600a5434111561137757611377600a54346113729190614056565b6125cd565b600b5461138d906001600160a01b031647612531565b6001600760008282546113a09190613fbc565b909155506113b990506113b161230d565b600754612665565b6001600960006113c761230d565b6001600160a01b031681526020810191909152604001600090812080549091906113f690849061ffff16613f96565b82546101009290920a61ffff81810219909316918316021790915560ff83166000908152601060205260408120805460019450909261143791859116613f96565b82546101009290920a61ffff81810219909316918316021790915560ff83166000818152601060209081526040808320546007805485526011845282852080549290971661ffff199092169190911790955593548252600f815290839020805460ff1916909217909155815180830190925269043c33c19375648000008252600d5491925082019043106114cb57436114cf565b600d545b90526007546000908152600e6020908152604090912082518155910151600190910155506016805460ff60a01b19169055565b60006001600160a01b03821661152a5760405162461bcd60e51b8152600401610c33906139d2565b506001600160a01b031660009081526003602052604090205490565b61154e61230d565b6001600160a01b031661155f61171f565b6001600160a01b0316146115855760405162461bcd60e51b8152600401610c3390613b6e565b610fa36000612744565b60008181526015602052604081205415610b7557600082815260156020526040902054610b729043614056565b6000818152600e6020526040812060010154431115610b75576000828152600e60205260409020600101546115f19043614056565b611603906702c68af0bb140000614037565b6000838152600e6020526040902054909150811115610b7557506000908152600e602052604090205490565b61163761230d565b6001600160a01b031661164861171f565b6001600160a01b03161461166e5760405162461bcd60e51b8152600401610c3390613b6e565b6014805460ff1916911515919091179055565b61168961230d565b6001600160a01b031661169a61171f565b6001600160a01b0316146116c05760405162461bcd60e51b8152600401610c3390613b6e565b600c80546001600160a01b0319166001600160a01b0392909216919091179055565b6000670de0b6b3a7640000611701619c406702c68af0bb140000614037565b61170b9190613ff9565b905090565b600c546001600160a01b031681565b6006546001600160a01b031690565b606060018054610b8990614099565b60085461ffff1681565b606481565b61175461230d565b6001600160a01b0316826001600160a01b031614156117855760405162461bcd60e51b8152600401610c3390613829565b806005600061179261230d565b6001600160a01b03908116825260208083019390935260409182016000908120918716808252919093529120805460ff1916921515929092179091556117d661230d565b6001600160a01b03167f17307eab39ab6107e8899845ad3d59bd9653f200f220920489ca2b5937696c318360405161180e91906135b3565b60405180910390a35050565b60106020526000908152604090205461ffff1681565b6702c68af0bb14000081565b601654600160a01b900460ff161561185357600080fd5b6016805460ff60a01b1916600160a01b1790558061186f61230d565b6001600160a01b0316611881826110ec565b6001600160a01b0316146118a75760405162461bcd60e51b8152600401610c3390613a65565b60145460ff166118c95760405162461bcd60e51b8152600401610c3390613e28565b600082815260156020526040902054156118f55760405162461bcd60e51b8152600401610c3390613640565b5060009081526015602052604090204390556016805460ff60a01b19169055565b670de0b6b3a764000081565b6000818152600e602052604081205460609190670de0b6b3a76400001061194a57600061196c565b6000838152600e602052604090205461196c90670de0b6b3a764000090613ff9565b905061197781612796565b9392505050565b61198661230d565b6001600160a01b031661199761171f565b6001600160a01b0316146119bd5760405162461bcd60e51b8152600401610c3390613b6e565b8051600a146119de5760405162461bcd60e51b8152600401610c3390613ec1565b60005b600a60ff821610156110d957818160ff1681518110611a1057634e487b7160e01b600052603260045260246000fd5b602002602001015160126000836001611a299190613fd4565b60ff1660ff1681526020019081526020016000209080519060200190611a50929190612bb3565b5080611a5b816140ef565b9150506119e1565b611a74611a6e61230d565b8361237f565b611a905760405162461bcd60e51b8152600401610c3390613d61565b611a9c848484846128b1565b50505050565b611aaa61230d565b6001600160a01b0316611abb61171f565b6001600160a01b031614611ae15760405162461bcd60e51b8152600401610c3390613b6e565b6006805482919060ff60a01b1916600160a01b836001811115611b1457634e487b7160e01b600052602160045260246000fd5b021790555050565b6013602052600090815260409020805461113a90614099565b6016546060906001600160a01b031615611bd45760165460405163c87b56dd60e01b81526001600160a01b039091169063c87b56dd90611b79908590600401613f13565b60006040518083038186803b158015611b9157600080fd5b505afa158015611ba5573d6000803e3d6000fd5b505050506040513d6000823e601f3d908101601f19168201604052611bcd9190810190612f3a565b9050610b75565b6000828152600f602052604090205460ff168015801590611bf95750600a60ff821611155b611c155760405162461bcd60e51b8152600401610c3390613c2d565b60ff811660009081526012602090815260408083208684526011909252822054611c429061ffff16612796565b604051602001611c539291906131a6565b60408051601f1981840301815291815260ff841660009081526012602090815282822088835260119091529181205492935091611c939061ffff16612796565b611c9c87611922565b611cad611ca889611e20565b612796565b604051602001611cc094939291906131e0565b60405160208183030381529060405290506000611cde611ca86116e2565b60008781526015602052604090205415611d13576040518060400160405280600381526020016259657360e81b815250611d2f565b604051806040016040528060028152602001614e6f60f01b8152505b60008881526015602052604090205415611d5457611d4f611ca889611edf565b611d6f565b604051806040016040528060018152602001600360fc1b8152505b611d8e670de0b6b3a7640000611d848b6115bc565b611ca89190613ff9565b604051602001611da1949392919061330d565b60408051601f1981840301815282825260ff871660009081526013602090815292812091945092611df292611dde92889290918891889101613426565b6040516020818303038152906040526128e4565b905080604051602001611e059190613501565b60405160208183030381529060405295505050505050919050565b6000611e2e619c4043613fbc565b6000838152600e60205260409020600101541115610b75576000828152600e6020526040902060010154619c4090611e67904390614056565b610b729190613ff9565b6000611e7f6064600a61400d565b61ffff16905090565b611e9061230d565b6001600160a01b0316611ea161171f565b6001600160a01b031614611ec75760405162461bcd60e51b8152600401610c3390613b6e565b6008805461ffff191661ffff92909216919091179055565b600081815260156020526040812054619c4090611efc9043614056565b1115610b7557600082815260156020526040902054619c4090611e679043614056565b601654600160a01b900460ff1615611f3657600080fd5b6016805460ff60a01b1916600160a01b17905580611f5261230d565b6001600160a01b0316611f64826110ec565b6001600160a01b031614611f8a5760405162461bcd60e51b8152600401610c3390613a65565b32611f9361230d565b6001600160a01b031614611fb95760405162461bcd60e51b8152600401610c3390613ce6565b6000828152600e6020526040902060010154431015611fea5760405162461bcd60e51b8152600401610c3390613de7565b6000611ff5836115bc565b9050600081116120175760405162461bcd60e51b8152600401610c3390613ba3565b600c546001600160a01b03166340c10f1961203061230d565b836040518363ffffffff1660e01b815260040161204e92919061359a565b602060405180830381600087803b15801561206857600080fd5b505af115801561207c573d6000803e3d6000fd5b505050506040513d601f19601f820116820180604052508101906120a09190612ec7565b506000838152600e6020526040812080548392906120bf908490614056565b90915550506000838152600e6020526040902043600190910155826120e261230d565b6001600160a01b03167f81ca9b2c230070eaa84787556b1aaf18bf1e2f07ea5d3dae4819db77a1a5b2248360405161211a9190613f13565b60405180910390a350506016805460ff60a01b1916905550565b6000908152600e602052604090206001015490565b600d5481565b6001600160a01b03918216600090815260056020908152604080832093909416825291909152205460ff1690565b600a81565b61218a61230d565b6001600160a01b031661219b61171f565b6001600160a01b0316146121c15760405162461bcd60e51b8152600401610c3390613b6e565b600a55565b69043c33c193756480000081565b6121dc61230d565b6001600160a01b03166121ed61171f565b6001600160a01b0316146122135760405162461bcd60e51b8152600401610c3390613b6e565b600b80546001600160a01b0319166001600160a01b0392909216919091179055565b600654600160a01b900460ff1681565b61224d61230d565b6001600160a01b031661225e61171f565b6001600160a01b0316146122845760405162461bcd60e51b8152600401610c3390613b6e565b6001600160a01b0381166122aa5760405162461bcd60e51b8152600401610c33906136dd565b6122b381612744565b50565b60156020526000908152604090205481565b6016546001600160a01b031681565b6001600160e01b031981166301ffc9a760e01b14919050565b6000908152600260205260409020546001600160a01b0316151590565b3390565b600081815260046020526040902080546001600160a01b0319166001600160a01b0384169081179091558190612346826110ec565b6001600160a01b03167f8c5be1e5ebec7d5bd14f71427d1e84f3dd0314c0f7b2291e5b200ac8c7c3b92560405160405180910390a45050565b600061238a826122f0565b6123a65760405162461bcd60e51b8152600401610c33906138f4565b60006123b1836110ec565b9050806001600160a01b0316846001600160a01b031614806123ec5750836001600160a01b03166123e184610c0c565b6001600160a01b0316145b806123fc57506123fc818561214f565b949350505050565b826001600160a01b0316612417826110ec565b6001600160a01b03161461243d5760405162461bcd60e51b8152600401610c3390613be4565b6001600160a01b0382166124635760405162461bcd60e51b8152600401610c33906137e5565b61246e838383612a58565b612479600082612311565b6001600160a01b03831660009081526003602052604081208054600192906124a2908490614056565b90915550506001600160a01b03821660009081526003602052604081208054600192906124d0908490613fbc565b909155505060008181526002602052604080822080546001600160a01b0319166001600160a01b0386811691821790925591518493918716917fddf252ad1be2c89b69c2b068fc378daa952ba7f163c4a11628f55a4df523b3ef91a4505050565b804710156125515760405162461bcd60e51b8152600401610c33906138bd565b6000826001600160a01b03168260405161256a90613546565b60006040518083038185875af1925050503d80600081146125a7576040519150601f19603f3d011682016040523d82523d6000602084013e6125ac565b606091505b5050905080610ceb5760405162461bcd60e51b8152600401610c3390613860565b6000811180156125dd5750803410155b156122b35760006125ec61230d565b6001600160a01b03168260405161260290613546565b60006040518083038185875af1925050503d806000811461263f576040519150601f19603f3d011682016040523d82523d6000602084013e612644565b606091505b50509050806110d95760405162461bcd60e51b8152600401610c339061375a565b6001600160a01b03821661268b5760405162461bcd60e51b8152600401610c3390613aed565b612694816122f0565b156126b15760405162461bcd60e51b8152600401610c3390613723565b6126bd60008383612a58565b6001600160a01b03821660009081526003602052604081208054600192906126e6908490613fbc565b909155505060008181526002602052604080822080546001600160a01b0319166001600160a01b03861690811790915590518392907fddf252ad1be2c89b69c2b068fc378daa952ba7f163c4a11628f55a4df523b3ef908290a45050565b600680546001600160a01b038381166001600160a01b0319831681179093556040519116919082907f8be0079c531659141344cd1fd0a4f28419497f9722a3daafe3b4186f6b6457e090600090a35050565b6060816127bb57506040805180820190915260018152600360fc1b6020820152610b75565b8160005b81156127e557806127cf816140d4565b91506127de9050600a83613ff9565b91506127bf565b60008167ffffffffffffffff81111561280e57634e487b7160e01b600052604160045260246000fd5b6040519080825280601f01601f191660200182016040528015612838576020820181803683370190505b5090505b84156123fc5761284d600183614056565b915061285a600a8661410f565b612865906030613fbc565b60f81b81838151811061288857634e487b7160e01b600052603260045260246000fd5b60200101906001600160f81b031916908160001a9053506128aa600a86613ff9565b945061283c565b6128bc848484612404565b6128c884848484612a92565b611a9c5760405162461bcd60e51b8152600401610c339061368b565b805160609080612904575050604080516020810190915260008152610b75565b60006003612913836002613fbc565b61291d9190613ff9565b612928906004614037565b90506000612937826020613fbc565b67ffffffffffffffff81111561295d57634e487b7160e01b600052604160045260246000fd5b6040519080825280601f01601f191660200182016040528015612987576020820181803683370190505b509050600060405180606001604052806040815260200161418a604091399050600181016020830160005b86811015612a13576003818a01810151603f601282901c8116860151600c83901c8216870151600684901c831688015192909316870151600891821b60ff94851601821b92841692909201901b91160160e01b8352600490920191016129b2565b506003860660018114612a2d5760028114612a3e57612a4a565b613d3d60f01b600119830152612a4a565b603d60f81b6000198301525b505050918152949350505050565b60145460ff161580612a765750600081815260156020526040902054155b610ceb5760405162461bcd60e51b8152600401610c3390613e71565b6000612aa6846001600160a01b0316612bad565b15612ba257836001600160a01b031663150b7a02612ac261230d565b8786866040518563ffffffff1660e01b8152600401612ae4949392919061355d565b602060405180830381600087803b158015612afe57600080fd5b505af1925050508015612b2e575060408051601f3d908101601f19168201909252612b2b91810190612eff565b60015b612b88573d808015612b5c576040519150601f19603f3d011682016040523d82523d6000602084013e612b61565b606091505b508051612b805760405162461bcd60e51b8152600401610c339061368b565b805181602001fd5b6001600160e01b031916630a85bd0160e11b1490506123fc565b506001949350505050565b3b151590565b828054612bbf90614099565b90600052602060002090601f016020900481019282612be15760008555612c27565b82601f10612bfa57805160ff1916838001178555612c27565b82800160010185558215612c27579182015b82811115612c27578251825591602001919060010190612c0c565b50610d5d9291505b80821115610d5d5760008155600101612c2f565b6000612c56612c5184613f62565b613f38565b9050828152838383011115612c6a57600080fd5b828260208301376000602084830101529392505050565b80356001600160a01b0381168114610b7557600080fd5b600060208284031215612ca9578081fd5b61197782612c81565b60008060408385031215612cc4578081fd5b612ccd83612c81565b9150612cdb60208401612c81565b90509250929050565b600080600060608486031215612cf8578081fd5b612d0184612c81565b9250612d0f60208501612c81565b9150604084013590509250925092565b60008060008060808587031215612d34578081fd5b612d3d85612c81565b9350612d4b60208601612c81565b925060408501359150606085013567ffffffffffffffff811115612d6d578182fd5b8501601f81018713612d7d578182fd5b612d8c87823560208401612c43565b91505092959194509250565b60008060408385031215612daa578182fd5b612db383612c81565b91506020830135612dc381614165565b809150509250929050565b60008060408385031215612de0578182fd5b612de983612c81565b946020939093013593505050565b60006020808385031215612e09578182fd5b823567ffffffffffffffff80821115612e20578384fd5b818501915085601f830112612e33578384fd5b813581811115612e4557612e4561414f565b612e528485830201613f38565b8181528481019250838501865b83811015612e9d57813586018a603f820112612e79578889fd5b612e8a8b8983013560408401612c43565b8652509386019390860190600101612e5f565b509098975050505050505050565b600060208284031215612ebc578081fd5b813561197781614165565b600060208284031215612ed8578081fd5b815161197781614165565b600060208284031215612ef4578081fd5b813561197781614173565b600060208284031215612f10578081fd5b815161197781614173565b600060208284031215612f2c578081fd5b813560028110611977578182fd5b600060208284031215612f4b578081fd5b815167ffffffffffffffff811115612f61578182fd5b8201601f81018413612f71578182fd5b8051612f7f612c5182613f62565b818152856020838501011115612f93578384fd5b612fa482602083016020860161406d565b95945050505050565b600060208284031215612fbe578081fd5b813561ffff81168114611977578182fd5b600060208284031215612fe0578081fd5b5035919050565b600060208284031215612ff8578081fd5b813560ff81168114611977578182fd5b6000815180845261302081602086016020860161406d565b601f01601f19169290920160200192915050565b6000815161304681856020860161406d565b9290920192915050565b80546000906002810460018083168061306a57607f831692505b602080841082141561308a57634e487b7160e01b86526022600452602486fd5b81801561309e57600181146130af576130dc565b60ff198616895284890196506130dc565b6130b888613f8a565b60005b868110156130d45781548b8201529085019083016130bb565b505084890196505b50505050505092915050565b7f2c207b2274726169745f74797065223a20224861727665737420496e222c20228152683b30b63ab2911d101160b91b602082015260290190565b7f2c207b22646973706c61795f74797065223a2022626f6f73745f6e756d62657281527f222c202274726169745f74797065223a20224861727665737461626c65222c206020820152680113b30b63ab2911d160bd1b604082015260490190565b627d5d7d60e81b815260030190565b662064617973227d60c81b815260070190565b60006131b28285613050565b6801021b0b83a30b4b7160bd1b815283516131d481600984016020880161406d565b01600901949350505050565b7f2261747472696275746573223a205b7b2274726169745f74797065223a20224681527230b1ba34b7b7111610113b30b63ab2911d101160691b6020820152600061322e6033830187613050565b61227d60f01b8082527f2c207b2274726169745f74797065223a20224361707461696e2042616467652260028301526b1610113b30b63ab2911d101160a11b60228301819052875161328781602e860160208c0161406d565b602e9301928301919091527f2c207b2274726169745f74797065223a20224861727665737420436c61696d226030830152605082015284516132d081605c84016020890161406d565b6620484f5045227d60c81b605c92909101918201526133026132fd6132f7606384016130e8565b86613034565b613193565b979650505050505050565b60007f2c207b2274726169745f74797065223a20224461696c7920456d697373696f6e82526c111610113b30b63ab2911d101160991b6020830152855161335b81602d850160208a0161406d565b6620484f5045227d60c81b602d918401918201527f2c207b2274726169745f74797065223a2022536f756c205374616b6564222c20603482015269113b30b63ab2911d101160b11b605482015285516133bb81605e840160208a0161406d565b61227d60f01b605e92909101918201527f2c207b2274726169745f74797065223a20225374616b656420666f72222c20226060820152683b30b63ab2911d101160b91b60808201526133026134216132f761341c6132fd608986018a613034565b613123565b613184565b693d913730b6b2911d101160b11b8152845160009061344c81600a850160208a0161406d565b7f222c20226465736372697074696f6e223a20224c6f737420486f706520536f63600a918401918201527f69657479204361707461696e204261646765732e2e2e22000000000000000000602a8201526b16101134b6b0b3b2911d101160a11b60418201526134be604d820187613050565b6201116160ed1b815285519091506134dd81600384016020890161406d565b84519101906134f381600384016020880161406d565b016003019695505050505050565b60007f646174613a6170706c69636174696f6e2f6a736f6e3b6261736536342c0000008252825161353981601d85016020870161406d565b91909101601d0192915050565b90565b6001600160a01b0391909116815260200190565b6001600160a01b038581168252841660208201526040810183905260806060820181905260009061359090830184613008565b9695505050505050565b6001600160a01b03929092168252602082015260400190565b901515815260200190565b60208101600283106135e057634e487b7160e01b600052602160045260246000fd5b91905290565b6000602082526119776020830184613008565b60208082526027908201527f4c48535f4361707461696e733a20546f6b656e206973206e6f7420736f756c2060408201526639ba30b5b2b21760c91b606082015260800190565b6020808252602b908201527f4c48535f4361707461696e733a20546f6b656e20697320616c7265616479207360408201526a37bab61039ba30b5b2b21760a91b606082015260800190565b60208082526032908201527f4552433732313a207472616e7366657220746f206e6f6e20455243373231526560408201527131b2b4bb32b91034b6b83632b6b2b73a32b960711b606082015260800190565b60208082526026908201527f4f776e61626c653a206e6577206f776e657220697320746865207a65726f206160408201526564647265737360d01b606082015260800190565b6020808252601c908201527f4552433732313a20746f6b656e20616c7265616479206d696e74656400000000604082015260600190565b6020808252602a908201527f4c48535f4361707461696e733a204661696c656420746f20726566756e64206f6040820152691d995c9c185e5b595b9d60b21b606082015260800190565b60208082526021908201527f4c48535f4361707461696e733a204e6f7468696e6720746f20776974686472616040820152607760f81b606082015260800190565b60208082526024908201527f4552433732313a207472616e7366657220746f20746865207a65726f206164646040820152637265737360e01b606082015260800190565b60208082526019908201527f4552433732313a20617070726f766520746f2063616c6c657200000000000000604082015260600190565b6020808252603a908201527f416464726573733a20756e61626c6520746f2073656e642076616c75652c207260408201527f6563697069656e74206d61792068617665207265766572746564000000000000606082015260800190565b6020808252601d908201527f416464726573733a20696e73756666696369656e742062616c616e6365000000604082015260600190565b6020808252602c908201527f4552433732313a206f70657261746f7220717565727920666f72206e6f6e657860408201526b34b9ba32b73a103a37b5b2b760a11b606082015260800190565b6020808252818101527f4c48535f4361707461696e733a204d696e74206e6f74206f70656e207965742e604082015260600190565b60208082526038908201527f4552433732313a20617070726f76652063616c6c6572206973206e6f74206f7760408201527f6e6572206e6f7220617070726f76656420666f7220616c6c0000000000000000606082015260800190565b6020808252602a908201527f4552433732313a2062616c616e636520717565727920666f7220746865207a65604082015269726f206164647265737360b01b606082015260800190565b60208082526029908201527f4552433732313a206f776e657220717565727920666f72206e6f6e657869737460408201526832b73a103a37b5b2b760b91b606082015260800190565b60208082526022908201527f4c48535f4361707461696e733a204d75737420626520746f6b656e206f776e65604082015261391760f11b606082015260800190565b60208082526026908201527f4c48535f4361707461696e733a204861727665737420616c726561647920737460408201526530b93a32b21760d11b606082015260800190565b6020808252818101527f4552433732313a206d696e7420746f20746865207a65726f2061646472657373604082015260600190565b6020808252602c908201527f4552433732313a20617070726f76656420717565727920666f72206e6f6e657860408201526b34b9ba32b73a103a37b5b2b760a11b606082015260800190565b6020808252818101527f4f776e61626c653a2063616c6c6572206973206e6f7420746865206f776e6572604082015260600190565b60208082526021908201527f4c48535f4361707461696e733a204e6f7468696e6720746f20686172766573746040820152601760f91b606082015260800190565b60208082526029908201527f4552433732313a207472616e73666572206f6620746f6b656e2074686174206960408201526839903737ba1037bbb760b91b606082015260800190565b6020808252601e908201527f4c48535f4361707461696e733a20496e76616c69642066616374696f6e2e0000604082015260600190565b60208082526021908201527f4552433732313a20617070726f76616c20746f2063757272656e74206f776e656040820152603960f91b606082015260800190565b60208082526021908201527f4c48535f4361707461696e733a204d696e74206c696d697420726561636865646040820152601760f91b606082015260800190565b6020808252601e908201527f4c48535f4361707461696e733a204f6e6c7920454f4120616c6c6f7765640000604082015260600190565b60208082526024908201527f4c48535f4361707461696e733a2046616374696f6e206c696d697420726561636040820152633432b21760e11b606082015260800190565b60208082526031908201527f4552433732313a207472616e736665722063616c6c6572206973206e6f74206f6040820152701ddb995c881b9bdc88185c1c1c9bdd9959607a1b606082015260800190565b6020808252818101527f4c48535f4361707461696e733a204d696e74206665652072657175697265642e604082015260600190565b60208082526021908201527f4c48535f4361707461696e733a2048617276657374206e6f74207374617274656040820152601960fa1b606082015260800190565b60208082526029908201527f4c48535f4361707461696e733a20536f756c205374616b696e67206e6f74206160408201526831ba34bb30ba32b21760b91b606082015260800190565b60208082526030908201527f4c48535f4361707461696e733a20546f6b656e207374616b65642c20756e737460408201526f30b5b2903a37903a3930b739b332b91760811b606082015260800190565b60208082526023908201527f4c48535f4361707461696e733a2046616374696f6e20636f756e7420696e76616040820152621b1a5960ea1b606082015260800190565b61ffff91909116815260200190565b90815260200190565b918252602082015260400190565b60ff91909116815260200190565b60405181810167ffffffffffffffff81118282101715613f5a57613f5a61414f565b604052919050565b600067ffffffffffffffff821115613f7c57613f7c61414f565b50601f01601f191660200190565b60009081526020902090565b600061ffff808316818516808303821115613fb357613fb3614123565b01949350505050565b60008219821115613fcf57613fcf614123565b500190565b600060ff821660ff84168060ff03821115613ff157613ff1614123565b019392505050565b60008261400857614008614139565b500490565b600061ffff8083168185168183048111821515161561402e5761402e614123565b02949350505050565b600081600019048311821515161561405157614051614123565b500290565b60008282101561406857614068614123565b500390565b60005b83811015614088578181015183820152602001614070565b83811115611a9c5750506000910152565b6002810460018216806140ad57607f821691505b602082108114156140ce57634e487b7160e01b600052602260045260246000fd5b50919050565b60006000198214156140e8576140e8614123565b5060010190565b600060ff821660ff81141561410657614106614123565b60010192915050565b60008261411e5761411e614139565b500690565b634e487b7160e01b600052601160045260246000fd5b634e487b7160e01b600052601260045260246000fd5b634e487b7160e01b600052604160045260246000fd5b80151581146122b357600080fd5b6001600160e01b0319811681146122b357600080fdfe4142434445464748494a4b4c4d4e4f505152535455565758595a6162636465666768696a6b6c6d6e6f707172737475767778797a303132333435363738392b2fa2646970667358221220a26cb53e2e406484522869e5c3aa2b5ed856cac55a3468450e010c06a48d451964736f6c63430008000033",
  "linkReferences": {},
  "deployedLinkReferences": {}
}